{
  "contractName": "NoBSCryptoTokenDistribution",
  "abi": [
    {
      "constant": true,
      "inputs": [
        {
          "name": "",
          "type": "address"
        }
      ],
      "name": "airdropAdmins",
      "outputs": [
        {
          "name": "",
          "type": "bool"
        }
      ],
      "payable": false,
      "stateMutability": "view",
      "type": "function"
    },
    {
      "constant": true,
      "inputs": [],
      "name": "AVAILABLE_AIRDROP_SUPPLY",
      "outputs": [
        {
          "name": "",
          "type": "uint256"
        }
      ],
      "payable": false,
      "stateMutability": "view",
      "type": "function"
    },
    {
      "constant": true,
      "inputs": [],
      "name": "INITIAL_SUPPLY",
      "outputs": [
        {
          "name": "",
          "type": "uint256"
        }
      ],
      "payable": false,
      "stateMutability": "view",
      "type": "function"
    },
    {
      "constant": true,
      "inputs": [],
      "name": "RESERVED_SUPPLY",
      "outputs": [
        {
          "name": "",
          "type": "uint256"
        }
      ],
      "payable": false,
      "stateMutability": "view",
      "type": "function"
    },
    {
      "constant": true,
      "inputs": [
        {
          "name": "",
          "type": "address"
        }
      ],
      "name": "airdrops",
      "outputs": [
        {
          "name": "",
          "type": "bool"
        }
      ],
      "payable": false,
      "stateMutability": "view",
      "type": "function"
    },
    {
      "constant": true,
      "inputs": [],
      "name": "owner",
      "outputs": [
        {
          "name": "",
          "type": "address"
        }
      ],
      "payable": false,
      "stateMutability": "view",
      "type": "function"
    },
    {
      "constant": true,
      "inputs": [],
      "name": "grandTotalClaimed",
      "outputs": [
        {
          "name": "",
          "type": "uint256"
        }
      ],
      "payable": false,
      "stateMutability": "view",
      "type": "function"
    },
    {
      "constant": true,
      "inputs": [],
      "name": "AVAILABLE_TOTAL_SUPPLY",
      "outputs": [
        {
          "name": "",
          "type": "uint256"
        }
      ],
      "payable": false,
      "stateMutability": "view",
      "type": "function"
    },
    {
      "constant": true,
      "inputs": [],
      "name": "AVAILABLE_COMMUNITY_SUPPLY",
      "outputs": [
        {
          "name": "",
          "type": "uint256"
        }
      ],
      "payable": false,
      "stateMutability": "view",
      "type": "function"
    },
    {
      "constant": true,
      "inputs": [],
      "name": "NoBS",
      "outputs": [
        {
          "name": "",
          "type": "address"
        }
      ],
      "payable": false,
      "stateMutability": "view",
      "type": "function"
    },
    {
      "constant": false,
      "inputs": [
        {
          "name": "newOwner",
          "type": "address"
        }
      ],
      "name": "transferOwnership",
      "outputs": [],
      "payable": false,
      "stateMutability": "nonpayable",
      "type": "function"
    },
    {
      "inputs": [
        {
          "name": "reserve_account",
          "type": "address"
        }
      ],
      "payable": false,
      "stateMutability": "nonpayable",
      "type": "constructor"
    },
    {
      "anonymous": false,
      "inputs": [
        {
          "indexed": true,
          "name": "_recipient",
          "type": "address"
        },
        {
          "indexed": true,
          "name": "_fromSupply",
          "type": "uint8"
        },
        {
          "indexed": false,
          "name": "_totalAllocated",
          "type": "uint256"
        },
        {
          "indexed": false,
          "name": "_grandTotalAllocated",
          "type": "uint256"
        }
      ],
      "name": "LogNewAllocation",
      "type": "event"
    },
    {
      "anonymous": false,
      "inputs": [
        {
          "indexed": true,
          "name": "_recipient",
          "type": "address"
        },
        {
          "indexed": true,
          "name": "_fromSupply",
          "type": "uint8"
        },
        {
          "indexed": false,
          "name": "_amountClaimed",
          "type": "uint256"
        },
        {
          "indexed": false,
          "name": "_totalAllocated",
          "type": "uint256"
        },
        {
          "indexed": false,
          "name": "_grandTotalClaimed",
          "type": "uint256"
        }
      ],
      "name": "LogNoBSClaimed",
      "type": "event"
    },
    {
      "anonymous": false,
      "inputs": [
        {
          "indexed": true,
          "name": "previousOwner",
          "type": "address"
        },
        {
          "indexed": true,
          "name": "newOwner",
          "type": "address"
        }
      ],
      "name": "OwnershipTransferred",
      "type": "event"
    },
    {
      "constant": false,
      "inputs": [
        {
          "name": "_admin",
          "type": "address"
        },
        {
          "name": "_isAdmin",
          "type": "bool"
        }
      ],
      "name": "setAirdropAdmin",
      "outputs": [],
      "payable": false,
      "stateMutability": "nonpayable",
      "type": "function"
    },
    {
      "constant": false,
      "inputs": [
        {
          "name": "_recipient",
          "type": "address[]"
        },
        {
          "name": "amount",
          "type": "uint256"
        }
      ],
      "name": "airdropTokens",
      "outputs": [],
      "payable": false,
      "stateMutability": "nonpayable",
      "type": "function"
    },
    {
      "constant": false,
      "inputs": [
        {
          "name": "_recipient",
          "type": "address[]"
        },
        {
          "name": "amount",
          "type": "uint256"
        }
      ],
      "name": "awardTokens",
      "outputs": [],
      "payable": false,
      "stateMutability": "nonpayable",
      "type": "function"
    },
    {
      "constant": false,
      "inputs": [
        {
          "name": "_recipient",
          "type": "address"
        },
        {
          "name": "_token",
          "type": "address"
        }
      ],
      "name": "refundTokens",
      "outputs": [],
      "payable": false,
      "stateMutability": "nonpayable",
      "type": "function"
    }
  ],
  "bytecode": "0x60606040526b1d14a0219e548224280000006002556b1b7709034e6c4205b40000006003556b019d971e4fe8401e740000006004556b033b2e3c9fd0803ce80000006005556000600655341561005457600080fd5b6040516020806114048339810160405280805160008054600160a060020a03191633600160a060020a03161781556004546003549294509092506100a591906401000000006101ec81026108971704565b600254146100b257600080fd5b6005546002546100ce916401000000006108976101ec82021704565b6b204fce5e3e25026110000000146100e557600080fd5b306100ee610202565b600160a060020a039091168152602001604051809103906000f080151561011457600080fd5b9050600160a060020a038116151561012b57600080fd5b60018054600160a060020a031916600160a060020a03838116919091179182905560055491169063a9059cbb9084906000604051602001526040517c010000000000000000000000000000000000000000000000000000000063ffffffff8516028152600160a060020a0390921660048301526024820152604401602060405180830381600087803b15156101bf57600080fd5b6102c65a03f115156101d057600080fd5b5050506040518051905015156101e557600080fd5b5050610212565b6000828201838110156101fb57fe5b9392505050565b6040516108f880610b0c83390190565b6108eb806102216000396000f3006060604052600436106100c15763ffffffff60e060020a60003504166306357fef81146100c657806310e8238414610119578063162cbefe1461014c5780632ff2e9dc1461017157806331a53e9a1461018457806357f1935f1461019757806379aa024e146101bc5780638c86f0a7146101e05780638da5cb5b146101ff5780639377530f1461022e578063a11223da14610241578063a92259fc14610292578063d12502b7146102a5578063f1583528146102b8578063f2fde38b146102cb575b600080fd5b34156100d157600080fd5b610117600460248135818101908301358060208181020160405190810160405280939291908181526020018383602002808284375094965050933593506102ea92505050565b005b341561012457600080fd5b610138600160a060020a036004351661044a565b604051901515815260200160405180910390f35b341561015757600080fd5b61015f61045f565b60405190815260200160405180910390f35b341561017c57600080fd5b61015f610465565b341561018f57600080fd5b61015f610475565b34156101a257600080fd5b610117600160a060020a036004358116906024351661047b565b34156101c757600080fd5b610117600160a060020a036004351660243515156105b3565b34156101eb57600080fd5b610138600160a060020a03600435166105f9565b341561020a57600080fd5b61021261060e565b604051600160a060020a03909116815260200160405180910390f35b341561023957600080fd5b61015f61061d565b341561024c57600080fd5b6101176004602481358181019083013580602081810201604051908101604052809392919081815260200183836020028082843750949650509335935061062392505050565b341561029d57600080fd5b61015f6107e1565b34156102b057600080fd5b61015f6107e7565b34156102c357600080fd5b6102126107ed565b34156102d657600080fd5b610117600160a060020a03600435166107fc565b60008054819033600160a060020a03908116911614806103225750600160a060020a03331660009081526007602052604090205460ff165b151561032d57600080fd5b5060005b835181101561040257600154600160a060020a031663a9059cbb85838151811061035757fe5b90602001906020020151670de0b6b3a7640000860260006040516020015260405160e060020a63ffffffff8516028152600160a060020a0390921660048301526024820152604401602060405180830381600087803b15156103b857600080fd5b6102c65a03f115156103c957600080fd5b5050506040518051905015156103de57600080fd5b6103f882670de0b6b3a7640000850263ffffffff61089716565b9150600101610331565b600354610415908363ffffffff6108ad16565b60035560025461042b908363ffffffff6108ad16565b600255600654610441908363ffffffff61089716565b60065550505050565b60076020526000908152604090205460ff1681565b60045481565b6b204fce5e3e2502611000000081565b60055481565b60008054819033600160a060020a0390811691161461049957600080fd5b600154600160a060020a03848116911614156104b457600080fd5b82915081600160a060020a03166370a082313060006040516020015260405160e060020a63ffffffff8416028152600160a060020a039091166004820152602401602060405180830381600087803b151561050e57600080fd5b6102c65a03f1151561051f57600080fd5b5050506040518051915050600160a060020a03821663a9059cbb858360006040516020015260405160e060020a63ffffffff8516028152600160a060020a0390921660048301526024820152604401602060405180830381600087803b151561058757600080fd5b6102c65a03f1151561059857600080fd5b5050506040518051905015156105ad57600080fd5b50505050565b60005433600160a060020a039081169116146105ce57600080fd5b600160a060020a03919091166000908152600760205260409020805460ff1916911515919091179055565b60086020526000908152604090205460ff1681565b600054600160a060020a031681565b60065481565b60008054819033600160a060020a039081169116148061065b5750600160a060020a03331660009081526007602052604090205460ff165b151561066657600080fd5b5060005b83518110156107b8576008600085838151811061068357fe5b90602001906020020151600160a060020a0316815260208101919091526040016000205460ff1615156107b0576001600860008684815181106106c257fe5b90602001906020020151600160a060020a0390811682526020820192909252604001600020805460ff1916921515929092179091556001541663a9059cbb85838151811061070c57fe5b90602001906020020151670de0b6b3a7640000860260006040516020015260405160e060020a63ffffffff8516028152600160a060020a0390921660048301526024820152604401602060405180830381600087803b151561076d57600080fd5b6102c65a03f1151561077e57600080fd5b50505060405180519050151561079357600080fd5b6107ad82670de0b6b3a7640000850263ffffffff61089716565b91505b60010161066a565b6004546107cb908363ffffffff6108ad16565b60045560025461042b908363ffffffff6108ad16565b60025481565b60035481565b600154600160a060020a031681565b60005433600160a060020a0390811691161461081757600080fd5b600160a060020a038116151561082c57600080fd5b600054600160a060020a0380831691167f8be0079c531659141344cd1fd0a4f28419497f9722a3daafe3b4186f6b6457e060405160405180910390a36000805473ffffffffffffffffffffffffffffffffffffffff1916600160a060020a0392909216919091179055565b6000828201838110156108a657fe5b9392505050565b6000828211156108b957fe5b509003905600a165627a7a72305820de24e924b125e145bff03c5c4690c76f0197b513c2d55c674f9c4d581bb14ecd00296060604052341561000f57600080fd5b6040516020806108f883398101604052808051915050600160a060020a038116151561003a57600080fd5b6b204fce5e3e250261100000006001819055600160a060020a03909116600090815260208190526040902055610883806100756000396000f3006060604052600436106100b95763ffffffff7c010000000000000000000000000000000000000000000000000000000060003504166306fdde0381146100be578063095ea7b31461014857806318160ddd1461017e57806323b872dd146101a35780632ff2e9dc146101cb578063313ce567146101de578063661884631461020757806370a082311461022957806395d89b4114610248578063a9059cbb1461025b578063d73dd6231461027d578063dd62ed3e1461029f575b600080fd5b34156100c957600080fd5b6100d16102c4565b60405160208082528190810183818151815260200191508051906020019080838360005b8381101561010d5780820151838201526020016100f5565b50505050905090810190601f16801561013a5780820380516001836020036101000a031916815260200191505b509250505060405180910390f35b341561015357600080fd5b61016a600160a060020a03600435166024356102fb565b604051901515815260200160405180910390f35b341561018957600080fd5b610191610367565b60405190815260200160405180910390f35b34156101ae57600080fd5b61016a600160a060020a036004358116906024351660443561036d565b34156101d657600080fd5b6101916104ed565b34156101e957600080fd5b6101f16104fd565b60405160ff909116815260200160405180910390f35b341561021257600080fd5b61016a600160a060020a0360043516602435610502565b341561023457600080fd5b610191600160a060020a03600435166105fc565b341561025357600080fd5b6100d1610617565b341561026657600080fd5b61016a600160a060020a036004351660243561064e565b341561028857600080fd5b61016a600160a060020a0360043516602435610760565b34156102aa57600080fd5b610191600160a060020a0360043581169060243516610804565b60408051908101604052600c81527f4e6f2042532043727970746f0000000000000000000000000000000000000000602082015281565b600160a060020a03338116600081815260026020908152604080832094871680845294909152808220859055909291907f8c5be1e5ebec7d5bd14f71427d1e84f3dd0314c0f7b2291e5b200ac8c7c3b9259085905190815260200160405180910390a350600192915050565b60015490565b6000600160a060020a038316151561038457600080fd5b600160a060020a0384166000908152602081905260409020548211156103a957600080fd5b600160a060020a03808516600090815260026020908152604080832033909416835292905220548211156103dc57600080fd5b600160a060020a038416600090815260208190526040902054610405908363ffffffff61082f16565b600160a060020a03808616600090815260208190526040808220939093559085168152205461043a908363ffffffff61084116565b600160a060020a0380851660009081526020818152604080832094909455878316825260028152838220339093168252919091522054610480908363ffffffff61082f16565b600160a060020a03808616600081815260026020908152604080832033861684529091529081902093909355908516917fddf252ad1be2c89b69c2b068fc378daa952ba7f163c4a11628f55a4df523b3ef9085905190815260200160405180910390a35060019392505050565b6b204fce5e3e2502611000000081565b601281565b600160a060020a0333811660009081526002602090815260408083209386168352929052908120548083111561055f57600160a060020a033381166000908152600260209081526040808320938816835292905290812055610596565b61056f818463ffffffff61082f16565b600160a060020a033381166000908152600260209081526040808320938916835292905220555b600160a060020a0333811660008181526002602090815260408083209489168084529490915290819020547f8c5be1e5ebec7d5bd14f71427d1e84f3dd0314c0f7b2291e5b200ac8c7c3b925915190815260200160405180910390a35060019392505050565b600160a060020a031660009081526020819052604090205490565b60408051908101604052600481527f4e4f425300000000000000000000000000000000000000000000000000000000602082015281565b6000600160a060020a038316151561066557600080fd5b600160a060020a03331660009081526020819052604090205482111561068a57600080fd5b600160a060020a0333166000908152602081905260409020546106b3908363ffffffff61082f16565b600160a060020a0333811660009081526020819052604080822093909355908516815220546106e8908363ffffffff61084116565b60008085600160a060020a0316600160a060020a031681526020019081526020016000208190555082600160a060020a031633600160a060020a03167fddf252ad1be2c89b69c2b068fc378daa952ba7f163c4a11628f55a4df523b3ef8460405190815260200160405180910390a350600192915050565b600160a060020a033381166000908152600260209081526040808320938616835292905290812054610798908363ffffffff61084116565b600160a060020a0333811660008181526002602090815260408083209489168084529490915290819020849055919290917f8c5be1e5ebec7d5bd14f71427d1e84f3dd0314c0f7b2291e5b200ac8c7c3b92591905190815260200160405180910390a350600192915050565b600160a060020a03918216600090815260026020908152604080832093909416825291909152205490565b60008282111561083b57fe5b50900390565b60008282018381101561085057fe5b93925050505600a165627a7a72305820f21e98708c03e3b1272434d0da5848c6ddc65f7cdaa3071eb3043c1c548a95d80029",
  "source": "pragma solidity ^0.4.18;\n\nimport \"zeppelin-solidity/contracts/token/ERC20/ERC20.sol\";\nimport \"zeppelin-solidity/contracts/ownership/Ownable.sol\";\nimport \"zeppelin-solidity/contracts/math/SafeMath.sol\";\nimport \"./NoBSCryptoToken.sol\";\n\n/**\n * @title NoBS token initial distribution\n *\n * @dev Distribute airdrop and contributor tokens\n */\ncontract NoBSCryptoTokenDistribution is Ownable {\n    using SafeMath for uint256;\n\n    NoBSCryptoToken public NoBS;\n\n    uint256 private constant decimalFactor = 10**uint256(18);\n    enum AllocationType { AIRDROP, CONTRIBUTOR }\n    uint256 public constant INITIAL_SUPPLY     = 10000000000 * decimalFactor;\n    uint256 public AVAILABLE_TOTAL_SUPPLY      =  9000000000 * decimalFactor;\n    uint256 public AVAILABLE_COMMUNITY_SUPPLY  =  8500000000 * decimalFactor;\n    uint256 public AVAILABLE_AIRDROP_SUPPLY    =   500000000 * decimalFactor;\n    uint256 public RESERVED_SUPPLY             =  1000000000 * decimalFactor;\n\n    uint256 public grandTotalClaimed = 0;\n\n    // List of admins\n    mapping (address => bool) public airdropAdmins;\n\n    // Keeps track of whether or not a 250 POLY airdrop has been made to a particular address\n    mapping (address => bool) public airdrops;\n\n    modifier onlyOwnerOrAdmin() {\n        require(msg.sender == owner || airdropAdmins[msg.sender]);\n        _;\n    }\n\n    event LogNewAllocation(address indexed _recipient, AllocationType indexed _fromSupply, uint256 _totalAllocated, uint256 _grandTotalAllocated);\n    event LogNoBSClaimed(address indexed _recipient, uint8 indexed _fromSupply, uint256 _amountClaimed, uint256 _totalAllocated, uint256 _grandTotalClaimed);\n\n    /**\n      * @dev Constructor function - Set the nobs token address\n      */\n    function NoBSCryptoTokenDistribution(address reserve_account) public {\n        require(AVAILABLE_TOTAL_SUPPLY == AVAILABLE_COMMUNITY_SUPPLY.add(AVAILABLE_AIRDROP_SUPPLY));\n        require(INITIAL_SUPPLY == AVAILABLE_TOTAL_SUPPLY.add(RESERVED_SUPPLY));\n        NoBSCryptoToken newNoBSCryptoTokenContract = new NoBSCryptoToken(this);\n        require (newNoBSCryptoTokenContract != address(0));\n        NoBS = newNoBSCryptoTokenContract;\n        require(NoBS.transfer(reserve_account, RESERVED_SUPPLY));\n    }\n\n    /**\n      * @dev Add an airdrop admin\n      */\n    function setAirdropAdmin(address _admin, bool _isAdmin) public onlyOwner {\n        airdropAdmins[_admin] = _isAdmin;\n    }\n\n    /**\n      * @dev perform a transfer of allocations\n      * @param _recipient is a list of recipients\n      */\n    function airdropTokens(address[] _recipient, uint amount) public onlyOwnerOrAdmin {\n        uint airdropped;\n        for(uint256 i = 0; i < _recipient.length; i++)\n        {\n            if (!airdrops[_recipient[i]]) {\n                airdrops[_recipient[i]] = true;\n                require(NoBS.transfer(_recipient[i], amount * decimalFactor));\n                airdropped = airdropped.add(amount * decimalFactor);\n            }\n        }\n        AVAILABLE_AIRDROP_SUPPLY = AVAILABLE_AIRDROP_SUPPLY.sub(airdropped);\n        AVAILABLE_TOTAL_SUPPLY = AVAILABLE_TOTAL_SUPPLY.sub(airdropped);\n        grandTotalClaimed = grandTotalClaimed.add(airdropped);\n    }\n\n    /**\n      * @dev perform a transfer of allocations\n      * @param _recipient is a list of recipients\n      */\n    function awardTokens(address[] _recipient, uint amount) public onlyOwnerOrAdmin {\n        uint awarded;\n        for(uint256 i = 0; i < _recipient.length; i++)\n        {\n            require(NoBS.transfer(_recipient[i], amount * decimalFactor));\n            awarded = awarded.add(amount * decimalFactor);\n        }\n        AVAILABLE_COMMUNITY_SUPPLY = AVAILABLE_COMMUNITY_SUPPLY.sub(awarded);\n        AVAILABLE_TOTAL_SUPPLY = AVAILABLE_TOTAL_SUPPLY.sub(awarded);\n        grandTotalClaimed = grandTotalClaimed.add(awarded);\n    }\n\n    // Allow transfer of accidentally sent ERC20 tokens\n    function refundTokens(address _recipient, address _token) public onlyOwner {\n        require(_token != address(NoBS));\n        ERC20 token = ERC20(_token);\n        uint256 balance = token.balanceOf(this);\n        require(token.transfer(_recipient, balance));\n    }\n    \n}",
  "sourcePath": "/Users/justin/VSCodeProjects/nobscrypto-contracts/contracts/NoBSCryptoTokenDistribution.sol",
  "compiler": {
    "name": "solc",
    "version": "0.4.19+commit.c4cbbb05.Emscripten.clang"
  },
  "schemaVersion": "2.0.0",
  "updatedAt": "2018-05-04T03:36:56.022Z"
}